{
  "contractName": "CoinFlipBet",
  "abi": [
    {
      "anonymous": false,
      "inputs": [
        {
          "indexed": false,
          "internalType": "address",
          "name": "owner",
          "type": "address"
        },
        {
          "indexed": false,
          "internalType": "uint256",
          "name": "funding",
          "type": "uint256"
        }
      ],
      "name": "fundingHappened",
      "type": "event"
    },
    {
      "anonymous": false,
      "inputs": [
        {
          "indexed": false,
          "internalType": "address",
          "name": "user",
          "type": "address"
        },
        {
          "indexed": false,
          "internalType": "uint256",
          "name": "bet",
          "type": "uint256"
        },
        {
          "indexed": false,
          "internalType": "bool",
          "name": "",
          "type": "bool"
        }
      ],
      "name": "result",
      "type": "event"
    },
    {
      "constant": true,
      "inputs": [],
      "name": "owner",
      "outputs": [
        {
          "internalType": "address",
          "name": "",
          "type": "address"
        }
      ],
      "payable": false,
      "stateMutability": "view",
      "type": "function"
    },
    {
      "constant": false,
      "inputs": [
        {
          "internalType": "uint256",
          "name": "prediction",
          "type": "uint256"
        }
      ],
      "name": "coinFlip",
      "outputs": [
        {
          "internalType": "bool",
          "name": "winner",
          "type": "bool"
        }
      ],
      "payable": true,
      "stateMutability": "payable",
      "type": "function"
    },
    {
      "constant": true,
      "inputs": [],
      "name": "outcomeGenerator",
      "outputs": [
        {
          "internalType": "uint256",
          "name": "",
          "type": "uint256"
        }
      ],
      "payable": false,
      "stateMutability": "view",
      "type": "function"
    },
    {
      "constant": true,
      "inputs": [],
      "name": "getBalance",
      "outputs": [
        {
          "internalType": "uint256",
          "name": "",
          "type": "uint256"
        }
      ],
      "payable": false,
      "stateMutability": "view",
      "type": "function"
    },
    {
      "constant": false,
      "inputs": [],
      "name": "withdrawAll",
      "outputs": [
        {
          "internalType": "uint256",
          "name": "",
          "type": "uint256"
        }
      ],
      "payable": false,
      "stateMutability": "nonpayable",
      "type": "function"
    },
    {
      "constant": false,
      "inputs": [],
      "name": "deposit",
      "outputs": [
        {
          "internalType": "uint256",
          "name": "",
          "type": "uint256"
        }
      ],
      "payable": true,
      "stateMutability": "payable",
      "type": "function"
    }
  ],
  "bytecode": "0x6080604052336000806101000a81548173ffffffffffffffffffffffffffffffffffffffff021916908373ffffffffffffffffffffffffffffffffffffffff1602179055506105a3806100536000396000f3fe6080604052600436106100555760003560e01c806312065fe01461005a578063402e699d14610085578063853828b6146100cb5780638da5cb5b146100f6578063d0e30db01461014d578063e44112031461016b575b600080fd5b34801561006657600080fd5b5061006f610196565b6040518082815260200191505060405180910390f35b6100b16004803603602081101561009b57600080fd5b81019080803590602001909291905050506101f9565b604051808215151515815260200191505060405180910390f35b3480156100d757600080fd5b506100e061036e565b6040518082815260200191505060405180910390f35b34801561010257600080fd5b5061010b610426565b604051808273ffffffffffffffffffffffffffffffffffffffff1673ffffffffffffffffffffffffffffffffffffffff16815260200191505060405180910390f35b61015561044b565b6040518082815260200191505060405180910390f35b34801561017757600080fd5b50610180610529565b6040518082815260200191505060405180910390f35b60008060009054906101000a900473ffffffffffffffffffffffffffffffffffffffff1673ffffffffffffffffffffffffffffffffffffffff163373ffffffffffffffffffffffffffffffffffffffff16146101f157600080fd5b600454905090565b6000346004541015610256576040517f08c379a000000000000000000000000000000000000000000000000000000000815260040180806020018281038252603381526020018061053c6033913960400191505060405180910390fd5b6000600234029050610266610529565b600381905550346004600082825401925050819055508260035414156102e95760019150600234026004600082825403925050819055503373ffffffffffffffffffffffffffffffffffffffff166108fc829081150290604051600060405180830381858888f193505050501580156102e3573d6000803e3d6000fd5b506102ee565b600091505b7fea22e2b2acbbbf65b601b73aea637f26f87bc5d55e7a6afc7b7e53237f43fb67333484604051808473ffffffffffffffffffffffffffffffffffffffff1673ffffffffffffffffffffffffffffffffffffffff16815260200183815260200182151515158152602001935050505060405180910390a181915050919050565b60008060009054906101000a900473ffffffffffffffffffffffffffffffffffffffff1673ffffffffffffffffffffffffffffffffffffffff163373ffffffffffffffffffffffffffffffffffffffff16146103c957600080fd5b6000600454905060006004819055503373ffffffffffffffffffffffffffffffffffffffff166108fc829081150290604051600060405180830381858888f1935050505015801561041e573d6000803e3d6000fd5b508091505090565b6000809054906101000a900473ffffffffffffffffffffffffffffffffffffffff1681565b60008060009054906101000a900473ffffffffffffffffffffffffffffffffffffffff1673ffffffffffffffffffffffffffffffffffffffff163373ffffffffffffffffffffffffffffffffffffffff16146104a657600080fd5b346004600082825401925050819055507fc439f9ba2a75456124aad8a3e0d265d518b7f380a6c2eaa1ff4e38cc11b07acd3334604051808373ffffffffffffffffffffffffffffffffffffffff1673ffffffffffffffffffffffffffffffffffffffff1681526020018281526020019250505060405180910390a1600454905090565b60006002428161053557fe5b0690509056fe54686520636f6e747261637420646f6573206e6f74206861766520656e6f75676820746f207061796f75742074686520626574a265627a7a7231582015eea19430f5d68fc9299b80b5c7085be91d26278921bfd603182ccdcc2f2ca464736f6c634300050c0032",
  "source": "import \"./Ownable.sol\";\npragma solidity 0.5.12;\n\ncontract CoinFlipBet is Ownable{\n\n\n\taddress player;\t//Stores address of wallet currently interacting with app\n\tuint betValue;\t//Ether to bet \n\tuint outcome;\t//Whether the coin landed on heads or tails \n\tuint private balance; //Stores the balance of the contract\n\n\tevent fundingHappened(address owner, uint funding);\n\tevent result(address user, uint bet, bool);\n\n\n\t/*Takes a prediction of heads or tails from user. This prediction \n\t  value is then compared with that of the outcome generated by\n\t  the \"outcomeGenerator()\" function to decide if player has won or lost*/\n\n\tfunction coinFlip(uint prediction) public payable returns (bool winner){\n\n\t\t//require(msg.value > 0 ether, \"Error: Player has to make a bet\");\t\n\t\trequire(balance >= msg.value, \"The contract does not have enough to payout the bet\");\t\n\n\n\n\t\tuint toTransfer = msg.value*2;\n\t\toutcome = outcomeGenerator();\n\t\tbalance += msg.value;\n\n\n\n\n\t\tif(outcome == prediction) {\n\t\t\twinner = true;\n\t\t\tbalance -= msg.value*2;\n\t\t\tmsg.sender.transfer(toTransfer);\n\n\n\t\t}\n\t\telse {\n\t\t\twinner = false;\n\t\t}\n        \n        emit result(msg.sender, msg.value, winner);\n\t\treturn winner;\n\n\t}\n\n\t\n\t//Returns a uint value of 0 or 1 to depict heads or tails\n\n\tfunction outcomeGenerator() public view returns (uint) {\n\n\t\treturn now % 2;\n\t}\n\n\n\t//Return balance of smart contract\n\n\tfunction getBalance() public onlyOwner view returns(uint) {\n    return balance;\n  }\n\n  \t//Transfers all funds from Smart contract to contract owner\n\n  \tfunction withdrawAll() public onlyOwner returns(uint) {\n\n  \tuint toTransfer = balance;\n    balance = 0;\n    msg.sender.transfer(toTransfer);\n    return toTransfer;\n\n  \t}\n\n  \t//Function for contract owner to be able to add funds to contract balance\n  \tfunction deposit() public onlyOwner payable returns (uint) {\n\n  \t\tbalance += msg.value;\n  \t\temit fundingHappened(msg.sender, msg.value);\n  \t\treturn balance;\n\n  \t}\n}",
  "sourcePath": "/home/rishi/Developer/BlockchainAndCrypto/EthereumSmartContractProgramming201/CoinFlip/contracts/CoinFlipBet.sol",
  "compiler": {
    "name": "solc",
    "version": "0.5.12+commit.7709ece9.Emscripten.clang"
  },
  "schemaVersion": "3.0.16",
  "updatedAt": "2020-08-31T01:20:37.173Z",
  "devdoc": {
    "methods": {}
  },
  "userdoc": {
    "methods": {}
  }
}